{
  "_format": "hh3-artifact-1",
  "contractName": "MatchLedger",
  "sourceName": "contracts/MatchLedger.sol",
  "abi": [
    {
      "inputs": [],
      "stateMutability": "nonpayable",
      "type": "constructor"
    },
    {
      "anonymous": false,
      "inputs": [
        {
          "indexed": true,
          "internalType": "string",
          "name": "matchId",
          "type": "string"
        },
        {
          "indexed": true,
          "internalType": "uint256",
          "name": "turnNumber",
          "type": "uint256"
        },
        {
          "indexed": false,
          "internalType": "bytes32",
          "name": "commitHash",
          "type": "bytes32"
        },
        {
          "indexed": false,
          "internalType": "uint256",
          "name": "timestamp",
          "type": "uint256"
        }
      ],
      "name": "TurnCommitted",
      "type": "event"
    },
    {
      "inputs": [
        {
          "internalType": "string",
          "name": "matchId",
          "type": "string"
        },
        {
          "internalType": "uint256",
          "name": "turnNumber",
          "type": "uint256"
        },
        {
          "internalType": "bytes32",
          "name": "commitHash",
          "type": "bytes32"
        }
      ],
      "name": "commitTurn",
      "outputs": [],
      "stateMutability": "nonpayable",
      "type": "function"
    },
    {
      "inputs": [
        {
          "internalType": "string",
          "name": "matchId",
          "type": "string"
        },
        {
          "internalType": "uint256",
          "name": "turnNumber",
          "type": "uint256"
        }
      ],
      "name": "getCommit",
      "outputs": [
        {
          "internalType": "bytes32",
          "name": "",
          "type": "bytes32"
        }
      ],
      "stateMutability": "view",
      "type": "function"
    },
    {
      "inputs": [],
      "name": "owner",
      "outputs": [
        {
          "internalType": "address",
          "name": "",
          "type": "address"
        }
      ],
      "stateMutability": "view",
      "type": "function"
    },
    {
      "inputs": [
        {
          "internalType": "string",
          "name": "",
          "type": "string"
        },
        {
          "internalType": "uint256",
          "name": "",
          "type": "uint256"
        }
      ],
      "name": "turnCommits",
      "outputs": [
        {
          "internalType": "bytes32",
          "name": "",
          "type": "bytes32"
        }
      ],
      "stateMutability": "view",
      "type": "function"
    }
  ],
  "bytecode": "0x608060405234801561000f575f80fd5b50335f806101000a81548173ffffffffffffffffffffffffffffffffffffffff021916908373ffffffffffffffffffffffffffffffffffffffff1602179055506108798061005c5f395ff3fe608060405234801561000f575f80fd5b506004361061004a575f3560e01c806334ff0c871461004e5780638da5cb5b1461006a57806390f1506514610088578063d8220387146100b8575b5f80fd5b610068600480360381019061006391906103e1565b6100e8565b005b610072610274565b60405161007f9190610491565b60405180910390f35b6100a2600480360381019061009d91906104aa565b610297565b6040516100af9190610516565b60405180910390f35b6100d260048036038101906100cd9190610667565b6102d1565b6040516100df9190610516565b60405180910390f35b5f8054906101000a900473ffffffffffffffffffffffffffffffffffffffff1673ffffffffffffffffffffffffffffffffffffffff163373ffffffffffffffffffffffffffffffffffffffff1614610175576040517f08c379a000000000000000000000000000000000000000000000000000000000815260040161016c90610741565b60405180910390fd5b5f801b6001858560405161018a92919061078d565b90815260200160405180910390205f8481526020019081526020015f2054146101e8576040517f08c379a00000000000000000000000000000000000000000000000000000000081526004016101df906107ef565b60405180910390fd5b80600185856040516101fb92919061078d565b90815260200160405180910390205f8481526020019081526020015f208190555081848460405161022d92919061078d565b60405180910390207fe60e604e065cf7d3b25dfc29d57ee32dca1c3ee236109b4addd36ec30eaf9237834260405161026692919061081c565b60405180910390a350505050565b5f8054906101000a900473ffffffffffffffffffffffffffffffffffffffff1681565b5f600184846040516102aa92919061078d565b90815260200160405180910390205f8381526020019081526020015f205490509392505050565b600182805160208101820180518482526020830160208501208183528095505050505050602052805f5260405f205f91509150505481565b5f604051905090565b5f80fd5b5f80fd5b5f80fd5b5f80fd5b5f80fd5b5f8083601f84011261033b5761033a61031a565b5b8235905067ffffffffffffffff8111156103585761035761031e565b5b60208301915083600182028301111561037457610373610322565b5b9250929050565b5f819050919050565b61038d8161037b565b8114610397575f80fd5b50565b5f813590506103a881610384565b92915050565b5f819050919050565b6103c0816103ae565b81146103ca575f80fd5b50565b5f813590506103db816103b7565b92915050565b5f805f80606085870312156103f9576103f8610312565b5b5f85013567ffffffffffffffff81111561041657610415610316565b5b61042287828801610326565b945094505060206104358782880161039a565b9250506040610446878288016103cd565b91505092959194509250565b5f73ffffffffffffffffffffffffffffffffffffffff82169050919050565b5f61047b82610452565b9050919050565b61048b81610471565b82525050565b5f6020820190506104a45f830184610482565b92915050565b5f805f604084860312156104c1576104c0610312565b5b5f84013567ffffffffffffffff8111156104de576104dd610316565b5b6104ea86828701610326565b935093505060206104fd8682870161039a565b9150509250925092565b610510816103ae565b82525050565b5f6020820190506105295f830184610507565b92915050565b5f80fd5b5f601f19601f8301169050919050565b7f4e487b71000000000000000000000000000000000000000000000000000000005f52604160045260245ffd5b61057982610533565b810181811067ffffffffffffffff8211171561059857610597610543565b5b80604052505050565b5f6105aa610309565b90506105b68282610570565b919050565b5f67ffffffffffffffff8211156105d5576105d4610543565b5b6105de82610533565b9050602081019050919050565b828183375f83830152505050565b5f61060b610606846105bb565b6105a1565b9050828152602081018484840111156106275761062661052f565b5b6106328482856105eb565b509392505050565b5f82601f83011261064e5761064d61031a565b5b813561065e8482602086016105f9565b91505092915050565b5f806040838503121561067d5761067c610312565b5b5f83013567ffffffffffffffff81111561069a57610699610316565b5b6106a68582860161063a565b92505060206106b78582860161039a565b9150509250929050565b5f82825260208201905092915050565b7f4f6e6c792074686520617574686f72697a65642072656c617965722063616e205f8201527f636f6d6d6974207475726e730000000000000000000000000000000000000000602082015250565b5f61072b602c836106c1565b9150610736826106d1565b604082019050919050565b5f6020820190508181035f8301526107588161071f565b9050919050565b5f81905092915050565b5f610774838561075f565b93506107818385846105eb565b82840190509392505050565b5f610799828486610769565b91508190509392505050565b7f5475726e20616c726561647920636f6d6d6974746564000000000000000000005f82015250565b5f6107d96016836106c1565b91506107e4826107a5565b602082019050919050565b5f6020820190508181035f830152610806816107cd565b9050919050565b6108168161037b565b82525050565b5f60408201905061082f5f830185610507565b61083c602083018461080d565b939250505056fea26469706673582212207361e911076adf13e887e5ec95fcabf2d7bddfa99c50dc2e9a559a1a548b678264736f6c63430008180033",
  "linkReferences": {},
  "deployedLinkReferences": {},
  "immutableReferences": {},
  "inputSourceName": "project/contracts/MatchLedger.sol",
  "buildInfoId": "solc-0_8_24-e60b89c8faac4bbda7cb7b65438e98e0cad45cce"
}